:400000000080002011000000A11D0000A11D000080B500AF024A034B1B68136001F0C4FEBC760040FA46004010B5054C237833B9044B13B10448AFF300800123237010BDD8
:400040008886FF1F00000000D05D0000084B10B51BB108480849AFF300800848036803B910BD074B002BFBD0BDE81040184700BF00000000D05D00008C86FF1F0881FF1FDD
:400080000000000080B500AF03F072FC002000F0BDFC02460B46104619464FF000029A4B05F0C6FB0346002B06D0984B01221A60974B00221A6004E0954B1B680133944A67
:4000C0001360934B1A68934B1B689A4205DD8F4B00221A608E4B00221A60012000F096FC02460B46104619464FF00002864B05F09FFB0346002B06D0874B01221A60874B06
:4001000000221A6004E0854B1B680133834A1360824B1A687F4B1B689A4205DD7E4B00221A607E4B00221A60022000F06FFC02460B46104619464FF00002734B05F078FB22
:400140000346002B06D0764B01221A60754B00221A6004E0734B1B680133724A1360714B1A686C4B1B689A4205DD6D4B00221A606C4B00221A60032000F048FC02460B4626
:40018000104619464FF000025F4B05F051FB0346002B06D0644B01221A60644B00221A6004E0624B1B680133604A13605F4B1A68584B1B689A4205DD5B4B00221A605B4B20
:4001C00000221A60042000F021FC02460B46104619464FF000024C4B05F02AFB0346002B06D0534B01221A60524B00221A6004E0504B1B6801334F4A13604E4B1A68454B47
:400200001B689A4205DD4A4B00221A60494B00221A60052000F0FAFB02460B46104619464FF00002384B05F003FB0346002B06D0414B01221A60414B00221A6004E03F4B04
:400240001B6801333D4A13603C4B1A68314B1B689A4205DD384B00221A60384B00221A602A4B1B68012B24D12D4B1B68012B20D12F4B1B68012B1CD1274B1B68012B18D178
:40028000294B1B68012B14D12B4B1B68012B10D12B4B1B6801332A4A1360294B1B68322B06D1284B01221A60254B00221A602DE12CE1254B1B68012B63D1244B1B68184617
:4002C00001F06AF90346032B0AD1134B1B68002B06D11C4B00221A60194B00221A604FE01A4B1B68184601F057F90346042B2FD1114B1B68002B2BD1124B00221A60104BEA
:4003000000221A603CE000BF0000F03FBC86FF1FC086FF1FF485FF1FC486FF1FC886FF1FCC86FF1FD086FF1FD486FF1FD886FF1FDC86FF1FE086FF1FE486FF1FE886FF1FF8
:400340003887FF1F3487FF1F5087FF1F5487FF1F6F4B1B68184601F01FF90346012B08D06B4B1B68184601F017F90346022B40F0CD80684B00221A60674B00221A60C5E01B
:40038000C4E0664B1B68022B3ED1614B1B68184601F002F90346032B0AD1614B1B68002B06D15C4B00221A605B4B00221A602AE0574B1B68184601F0EFF80346042B0AD1F0
:4003C000584B1B68002B06D1524B00221A60524B00221A6017E04E4B1B68184601F0DCF80346012B08D04A4B1B68184601F0D4F80346022B40F08A80464B00221A60464B3F
:4004000000221A6082E081E0444B1B68032B3DD13F4B1B68184601F0BFF80346012B0AD13F4B1B68002B06D13A4B00221A603A4B00221A6029E0364B1B68184601F0ACF85B
:400440000346022B0AD1374B1B68002B06D1314B00221A60304B00221A6016E02C4B1B68184601F099F80346032B07D0284B1B68184601F091F80346042B47D1254B0022E7
:400480001A60254B00221A6040E03FE0234B1B68042B3BD11E4B1B68184601F07DF80346012B0AD11F4B1B68002B06D1194B00221A60194B00221A6028E0154B1B68184613
:4004C00001F06AF80346022B0AD1154B1B68002B06D1104B00221A600F4B00221A6015E00B4B1B68184601F057F80346032B07D0074B1B68184601F04FF80346042B05D113
:40050000044B00221A60044B00221A6080BD00BF5487FF1F3487FF1F3887FF1F5087FF1FE486FF1FC486FF1F80B500AF104B01221A6003F097FB0F4B1B68012B04D10E4BBD
:400540001B6801330C4A13600B4B1B68032B0DD10A4B1B68012B06D1094B1B68012B02D1044B00221A60044B00221A6080BD00BFB886FF1F4887FF1F3087FF1FC486FF1F0D
:40058000E486FF1FB0B58AB000AF03F0F5F8034687F8273097F82730232B34D13B1D00221A60043300221A60043300221A60043300221A60043300221A60043300221A601A
:4005C000043300221A60043300221A6004334B4B1D463C1D0FCC28606960AA60EB600FCC28616961AA61EB61454B01221A60454B00221A60444B00221A60444B1B680133FC
:40060000424A136077E097F827300A2B4CD13D4B01221A603A4B00221A60384B9B881BB2184601F0D1F80346DAB2394B1A70334B5B881BB2184601F0C7F80346DAB2344BE8
:400640005A702E4BDB881BB2324A82FB03129210DB17D31A9BB21BB22F4A13602F4B1B68012B0ED12C4B1B68002B0ADB2A4B1B685A2B06DC284B1B6803F5B473264A136009
:4006800039E0264B1B68032B35D1234B1B68002B31DB214B1B68B42B2DDC1F4B1B6803F5B4731D4A136026E097F827302C2B05D1154B1B680133144A13601CE097F8273031
:4006C0002D2B03D1164B01221A6014E097F827305D2B10D097F827305B2B0CD0084B1B68002B08D0074B1B68002B04D197F82730184600F017F82837BD46B0BDFC97FF1FD5
:40070000F086FF1FF486FF1F0087FF1F0887FF1FD08EFF1F676666662C87FF1F5087FF1F0487FF1F80B582B000AF0346FB71984B1B68102B00F2288101A252F823F000BFF1
:4007400085070000A7070000C7070000E507000003080000210800003F0800005D0800007B08000099080000B7080000D5080000F3080000110900002F0900004D09000042
:400780006B090000834B1B785BB29AB2FB79303BDBB212B21046194600F0FEF80346DAB27C4B1A70F1E07B4B5B789AB2FB79303BDBB212B21046194600F0EEF80346DAB2D4
:4007C000744B5A70E1E0734B5A88FB79303BDBB212B21046194600F0DFF803461A466D4B5A80D2E06B4B9A88FB79303BDBB212B21046194600F0D0F803461A46654B9A808E
:40080000C3E0644BDA88FB79303BDBB212B21046194600F0C1F803461A465E4BDA80B4E05C4B1A89FB79303BDBB212B21046194600F0B2F803461A46564B1A81A5E0554B63
:400840005A89FB79303BDBB212B21046194600F0A3F803461A464F4B5A8196E04D4B9A89FB79303BDBB212B21046194600F094F803461A46474B9A8187E0464BDA89FB7950
:40088000303BDBB212B21046194600F085F803461A46404BDA8178E03E4B1A8AFB79303BDBB212B21046194600F076F803461A46384B1A8269E0374B5A8AFB79303BDBB220
:4008C00012B21046194600F067F803461A46314B5A825AE02F4B9A8AFB79303BDBB212B21046194600F058F803461A46294B9A824BE0284BDA8AFB79303BDBB212B2104671
:40090000194600F049F803461A46224BDA823CE0204B1A8BFB79303BDBB212B21046194600F03AF803461A461A4B1A832DE0194B5A8BFB79303BDBB212B21046194600F0AC
:400940002BF803461A46134B5A831EE0114B9A8BFB79303BDBB212B21046194600F01CF803461A460B4B9A830FE00A4BDA8BFB79303BDBB212B21046194600F00DF8034620
:400980001A46044BDA8300E000BF0837BD4680BD0087FF1FFC97FF1F80B483B000AF03460A46FB8013467B71174B1B68002B08D0154B00221A607B799BB25B429BB2FB80BE
:4009C0001AE0B7F90630002B0BDAFB881A46920013445B009AB27B799BB2D31A9BB2FB800AE0FB881A46920013445B009AB27B799BB213449BB2FB80FB881BB218460C37F0
:400A0000BD465DF8047B70470487FF1F80B584B000AF78607B689BB2184601F09FFD0346184601F0B9FD0346184604F01DFC02460B46C7E90223D7E9022310461946103723
:400A4000BD4680BDF0B5ADF2944D4FF48D676F4465233B7365237B73F868784900F062FBF868774900F05EFBF868764900F05AFB754B1B783B72754B1B787B72B868704927
:400A800000F050FB724B1B783B71724B1B787B710F23BB6113237B6100237B6219E000233B620FE06C497A6A1346DB0013445B0013443A6A134442F20F7241F823203B6A14
:400AC00001333B623A6A7B699A42EBDB7B6A01337B627A6ABB699A42E1DB3B7A1A467B7A18465D491346DB0013445B0013440344002241F82320594A574B11461A4640F207
:400B00007443084611461A4605F04EF93B7A1C467B7A1D46B868796800F0D6FA01464F4A2346DB0023445B0023442B4442F8231000233B6117E1494C694604F10C034FF422
:400B40008D620846194605F02FF994E80E003C4800F092F903463B803A783B799A4208D17A787B799A4204D1B868796800F010F9FFE03868324900F0FDFA3868314900F098
:400B8000D1FA386800F0E8F90023FB61E7E0344AFB6912F81330652B00D1E4E0304AFB6932F81320002362F30F031846254900F023FB0346002B00D0CEE0294AFB6932F8CD
:400BC0001320002362F30F0318461D4900F0AAFA3B781A467B7818461F491346DB0013445B001344034451F823401D4AFB6932F81320002362F30F033868194600F064FAE5
:400C000003462344174A1360154AFB6912F813301A461349FB695B000B445B7818460E491346DB0013445B001344034451F823200C4B1B689A4217DC8EE000BF649DFF1FC9
:400C4000E088FF1F588BFF1F4087FF1F4187FF1F4287FF1F4387FF1F148FFF1F8893FF1FFC85FF1FC09FFF1F434AFB6912F813301A464149FB695B000B445B781C46387822
:400C80003E491346DB0013445B0013442344024601F81320384AFB6912F813301A463649FB695B000B445B781C46787833491346DB0013445B00134423445B000B4402463E
:400CC0005A702D4AFB6912F813301A462A49FB695B000B445B781C46294B196829481346DB0013445B001344234440F82310224AFB6912F813301C461F4AFB695B00134479
:400D00005B781E461C4AFB6912F813301A461A49FB695B000B445B7818461A491346DB0013445B001344034451F82350124AFB6932F81320002362F30F031846796800F0EA
:400D4000C3F90346EA1810492346DB0023445B002344334441F82320FB690133FB61FB69032B7FF714AF094B1B78652B7FF4E3AE00BF2C37BD46F0BDFC85FF1FC49FFF1F87
:400D8000C09FFF1F148FFF1F8893FF1FE088FF1F80B586B000AFB88039803B781A467B78184633491346DB0013445B001344034411F813307B613B781A467B7818462C49C6
:400DC0001346DB0013445B00134403445B000B445B783B613B783B737B787B73F868254900F0A0F97B69DBB23B733B69DBB27B7326E07B69DBB23B733B69DBB27B73F868DB
:400E00001C4900F08FF93B7B1A467B7B184618491346DB0013445B001344034411F813307B613B7B1A467B7B184611491346DB0013445B00134403445B000B445B783B61FD
:400E40003B791A467B699A42D3D17B791A463B699A42CED17B69DBB23B733B69DBB27B73F868044900F05EF91837BD4680BD00BFC49FFF1F649DFF1F84B080B489B000AF17
:400E8000786007F12C0080E80E0000237B6142F20F73FB610023BB6149E0BB695B007A6813441B781A46BB695B0079680B445B7819461346DB0013445B0013440B449B0094
:400EC00007F1280213445A68FB699A4223DABB695B007A6813441B781A46BB695B0079680B445B7819461346DB0013445B0013440B449B0007F1280213445B68FB61BB690B
:400F00005B007A6813441B783B73BB695B007A6813445B787B73BB6901335B007A6813441B78652B00D106E0BB690133BB61BB69B3F5967FB1DBBB893B8200233A7C62F38D
:400F400007037A7C62F30F2318462437BD465DF8047B04B0704700BFB0B493B000AFB88007F1340300221A60043300221A60043300221A70013300237B64504B07F1140440
:400F80001D460FCD0FC495E80F0084E80F0000233B648AE03B6CDB0007F14802134453F8343C002B3AD03B6CDB0007F14802134453F8343C3A7913440F2B2FDC3B6CDB003A
:400FC00007F14802134453F8343C3A791344002B24DB3B6CDB0007F14802134453F8343CDAB23B791344DBB23B747B797B743B7C1A467B7C184632491346DB0013445B0010
:401000001344034451F82330002B07D12D497B6C3A8A21F813207B6C01337B643B6CDB0007F14802134453F8303C002B3AD03B6CDB0007F14802134453F8303C7A791344E9
:40104000132B2FDC3B6CDB0007F14802134453F8303C7A791344002B24DB3B793B733B6CDB0007F14802134453F8303CDAB27B791344DBB27B733B7B1A467B7B1846104998
:401080001346DB0013445B001344034451F82330002B07D10B497B6CBA8921F813207B6C01337B643B6C01333B643B6C032B7FF771AF4C37BD46B0BC704700BFD85D0000C7
:4010C0000C81FF1FFC85FF1F80B582B000AFB88039803B791A463B78D31A3A7911463A788A1A02FB03F27B7919467B78CB1A797908467978411A01FB03F31344184604F047
:40110000A1F802460B461046194602F08DFF02460B461046194604F095FB034618460837BD4680BD80B485B000AFB880396040F22B13FB6010E0FB685B003A68D118FB6802
:4011400003F10043013B5B003A6813440A461B881380FB68013BFB60FB68002BEBDC3B681A463B1D1B8813801437BD465DF8047B704700BF80B485B000AFB880396000239E
:40118000FB600023BB6023E03A79BB685B0039680B441B789A4209D17A79BB685B0039680B445B789A4201D10123FB60FB68012B0BD1BB685B003A68D118BB6801335B00A2
:4011C0003A6813440A461B881380BB680133BB60BB68B3F5957FD7DD3B6803F2562305491A460B461B8813801437BD465DF8047B704700BFF85D000080B485B000AFB880E8
:4012000039600023FB6014E03A79FB685B0039680B441B789A4209D17A79FB685B0039680B445B789A4201D1012307E0FB680133FB60FB68B3F5957FE6DD0023184614372C
:40124000BD465DF8047B704780B588B000AFFFF7F9FB0023FB610CE0604AFB6912F81330652B03D15E4AFB69136006E0FB690133FB61FB69B3F5FA7FEEDB0023BB6113E0D7
:40128000574B1B68BA690132544856495B00034452000A4412881A80514B1B680133504A1360BB690133BB614E4ABB6912F81330652BE5D100237B6117E04A4A7B6912F867
:4012C00013301A4647497B695B000B445B78184645491346DB0013445B00134403440B4401221A707B6901337B613E4A7B6912F81330652BE1D100233B6123E0394A3B6916
:40130000652102F81310374A3B695B00134465225A70364A3B69652102F81310334A3B695B00134465225A70314A3B69652102F813102F4A3B695B00134465225A703B6971
:4013400001333B613B69B3F5967FD7DB0023FB6023E00023BB601AE02649FA681346DB0013445B001344BA6813440B4400221A702149FA681346DB0013445B001344BA6824
:4013800013440B4400221A70BB680133BB60BB68122BE1DDFB680133FB60FB680E2BD8DD65233B7065237B7000237B6007E013497B683A8821F813207B6801337B607B685B
:4013C000032BF4DD0E4B1A780E4B1A700E4B1A780E4B1A702037BD4680BD00BF7C99FF1F4487FF1F649DFF1F5C98FF1FE088FF1F588BFF1FC087FF1FB08DFF1FFC85FF1FC9
:401400004287FF1F4087FF1F4387FF1F4187FF1FB0B586B000AF40A3D3E90023C7E904233F4B1B781A463F4B1B7818463E491346DB0013445B00134403440B4401221A7030
:401440000023FB6061E00023BB6058E03649FA681346DB0013445B001344BA6813440B441B78002B48D12E4B1B781A46FB68D31A184603F0E7FE02460B46104619464FF0FB
:4014800000024FF0804302F057FC04460D46254B1B781A46BB68D31A184603F0D3FE02460B46104619464FF000024FF0804302F043FC02460B462046294603F077FD0246D2
:4014C0000B461046194602F0AFFDC7E90001D7E90001D7E9042304F08DF90346002B0BD0D7E90023C7E90423FB68DAB20F4B1A70BB68DAB20E4B1A70BB680133BB60BB6872
:40150000122BA3DDFB680133FB60FB680E2B9ADD1837BD46B0BD00BF0000000000388F404087FF1F4187FF1F5C98FF1F4287FF1F4387FF1FAFF3008080B485B000AF00235B
:40154000FB600023BB601BE000237B6012E01149BA681346DB0013445B0013447A6813440B441B78002B02D1FB680133FB607B6801337B607B68122BE9DDBB680133BB60D9
:40158000BB680E2BE0DDFB6818461437BD465DF8047B70475C98FF1F80B483B000AF78607B680133224A5B0013445B781946204A7B685B0013445B78CB1A012B01D1012338
:4015C0002FE01B4A7B685B0013445B7819467B680133174A5B0013445B78CB1A012B01D102231EE0124A7B6812F8133019467B6801330F4A12F81330CB1A012B01D10323FC
:401600000FE07B6801330A4A12F813301946084A7B6812F81330CB1A012B01D1042300E0002318460C37BD465DF8047B704700BF7C99FF1F80B584B000AF7860032000F0F1
:40164000C1FFFA2001F0D6FB002000F0BBFF554B1B68002B07D0544B1B68002B03D0534B1B68002B03D1524B00221A6002E0504B01221A607B68022B02D07B68012B3AD150
:40168000502001F08DFC502001F04CFD7B68DBB2184602F0BDF87B68DBB2184602F0C8F81EE0404B1B68012B0AD13F4B1B68012B06D13E4B1B68012B02D13D4B01221A604E
:4016C000384B1B68002B0BD1394B1B68012B07D1374B00221A60374B1B680133354A1360344B1B68012BDCD1324B00221A60304B01221A603EE07B68B42B3BD1502001F030
:401700004FFC502001F00EFD012002F081F8012002F08EF8284B1B68B433FB60FB682833FB60FB68B3F5B47F03DDFB68A3F5B473FB6002E0012001F015FD1F4B1A68FB688C
:401740009A42F7DC002001F00DFD06E0154B1B68002B02D1194B01221A60184B1B68002BF4D0164B00221A60124B00221A60104B01221A6000F07CF8012002F049F802203A
:4017800002F056F80E4B01221A600E4B01221A60002002F095FA002002F0B0FA1037BD4680BD00BFCC86FF1FBC86FF1FDC86FF1FF885FF1F3C87FF1F2C87FF1F5C87FF1FBC
:4017C0004887FF1F4C87FF1F80B588B000AF0346FB80B7F90630184603F034FD02460B46104619464FF000021E4B03F0BBFE02460B46C7E90423D7E904014FF000021A4B44
:4018000003F086FD02460B461046194604F01AF80346FB60FA68154B83FB02139910D317C91A0B469B000B445B00D31ABB60BB68042B08DCFB680D4A82FB03129210DB17BB
:40184000D31AFB6108E0FB68084A82FB03129210DB17D31A0133FB61FB6918462037BD4680BD00BF00804B40000024406766666680B500AF0E4B1B68002B06D1502001F09C
:401880008FFB372001F04EFC10E00A4B1B68002B06D1372001F084FB502001F043FC05E05A2001F07DFB5A2001F03CFC80BD00BFDC86FF1FBC86FF1F80B500AF814B1B6861
:4018C0001846FFF769FE0346012B38D17E4B1B68022B0AD17D4B1B68002B06D1012002F0EFF9B420FFF7A6FE28E0774B1B68032B0ED1774B1B68002B0AD1764B1B68002B91
:4019000006D1012002F0FAF90120FFF793FE15E06D4B1B68042B0ED16F4B1B68002B0AD16C4B1B68002B06D1012002F0E7F90220FFF780FE02E0FFF79BFFC1E0C0E0614B7D
:401940001B681846FFF728FE0346022B38D15E4B1B68012B0AD15D4B1B68002B06D1012002F0AEF9B420FFF765FE28E0564B1B68032B0ED1584B1B68002B0AD1554B1B681C
:40198000002B06D1012002F0B9F90220FFF752FE15E04D4B1B68042B0ED14D4B1B68002B0AD14C4B1B68002B06D1012002F0A6F90120FFF73FFE02E0FFF75AFF80E07FE0A7
:4019C000404B1B681846FFF7E7FD0346032B38D13D4B1B68022B0ED13D4B1B68002B0AD13C4B1B68002B06D1012002F087F90120FFF720FE24E0344B1B68012B0ED1364B93
:401A00001B68002B0AD1334B1B68002B06D1012002F074F90220FFF70DFE11E02A4B1B68042B0AD1294B1B68002B06D1012002F047F9B420FFF7FEFD02E0FFF719FF3FE064
:401A40003EE0204B1B681846FFF7A6FD0346042B36D11D4B1B68022B0ED11F4B1B68002B0AD11C4B1B68002B06D1012002F046F90220FFF7DFFD23E0134B1B68012B0ED1D9
:401A8000134B1B68002B0AD1124B1B68002B06D1012002F033F90120FFF7CCFD10E00A4B1B68032B0AD1094B1B68002B06D1012002F006F9B420FFF7BDFD01E0FFF7D8FE51
:401AC00080BD00BF5487FF1F5087FF1F4C87FF1FE486FF1F4887FF1FC486FF1F80B584B000AF62B601F080FB01F0D8FB01F0B6F901F076FA01F01CFF02F094F8954801F075
:401B000065FF954801F0D0FF944801F089FD00F009FD00F01DFD002001F06AFE01F0CEFD502001F03DFA502001F0FCFA0023FB600023BB600DE08A4ABB68652102F81310EA
:401B4000874ABB685B00134465225A70BB680133BB60BB68B3F5FA7FEDDB00237B6023E000233B601AE07F497A681346DB0013445B0013443A68134451F82330D8B27A496E
:401B80007A681346DB0013445B0013443A6813440B4402461A703B6801333B603B68122BE1DD7B6801337B607B680E2BD8DD6F4B01221A706E4B01221A706E4B04221A60F3
:401BC0006D4B1B68694A1178654A02F813106A4B1B68674A1178624A5B0013440A465A7001F042FF0346002B0FD101F04DFF0346002B0AD103E0FFF70BFCFFF725FBFFF7BA
:401C00009BFC0346002BF6DC21E001F02DFF0346012B1CD101F038FF0346002B17D113E0564AFB68DB0013445B68DAB2544B1A70524AFB6852F83330DAB2524B1A70FFF7CE
:401C400003FBFB680133FB60FB68062BE8D1012001F088FA4C4B9B881BB21846FFF7B4FD0346DAB2494B1A70474B5B881BB21846FFF7AAFD0346DAB2444B5A7063E01BE06B
:401C8000434B00221A60434B1B68012B0CD1022001F0BEFD012001F0CBFD3C2001F080F93C2001F03FFA07E0012001F0B1FD022001F0BEFDFFF700FE344B1A78364B1B686E
:401CC0000133274911F813309A42D9D12F4B5A78314B1B68013322495B000B445B789A42CED12B4B1B68002B12D12B4B1B681846FFF752FC02461F4B1A60274B1B68013395
:401D0000254A1360224B01221A60244B00221A60214B1B68124A12F81330652B13D11E4B1B680F4A5B0013445B78652B0BD1012001F06EFD012001F07BFDFF2001F030F92A
:401D4000FF2001F0EFF9144B1B68B3F5967F96D180E700BF8500000029050000850500007C99FF1F0C81FF1F5C98FF1F4087FF1F4187FF1F5087FF1F4487FF1F8085FF1F46
:401D80004287FF1F4387FF1FFC97FF1FD08EFF1F5887FF1F3487FF1F5487FF1F4C87FF1F80B400AFFEE700BF80B586B000AF224B7B61224B3B61204B7B6135E03B691B68F1
:401DC000FB603B695B68BB603B699B683B6000237B600CE0FB681A68BB681A60BB680433BB60FB680433FB607B6804337B607A683B689A42EED13B69DB683B6000237B6059
:401E000008E0BB6800221A60BB680433BB607B6804337B607A683B689A42F2D13B6910333B617B69013B7B617B69002BC6D103F095FFFFF753FEFEE701000000B85E00007E
:401E400080B582B000AF184B184A1A60184A184B1B6843F40073136000237B600FE07B68032B04D8134A7B6852F8233000E0124B12497A6841F822307B6801337B607B6817
:401E80002F2BECD90E4B1B78DAB20E4B1A700E4B0A4A1A6000F092F900F082FD0B4B00221A600837BD4680BD0CED00E00004FA0514ED00E000000000A11D00000080FF1F0D
:401EC000BC7600400481FF1F08ED00E00081FF1F80B582B000AF78603960786800213A6803F06DFF0837BD4680BD00BF80B584B000AFF860B9607A60F868B9687A6803F0D9
:401F000053FF1037BD4680BD80B483B000AF0346FB71FEE780B487B000AF7860396000233B6100237B6127E07B699B007A6813441B68BB60BB68FB73BB6823F0FF03BB608E
:401F400014E03B695B003A6813441B781A46BB68134419463B695B003A6813445B780B703B6901333B61FB7B013BFB73FB7B002BE7D17B6901337B617B692B2BD4D91C3748
:401F8000BD465DF8047B704780B582B000AF3F4B04221A803E4B18221A703E4B3B221A803D4B18221A703D4B81221A803C4B18221A703C4B00221A803B4B1B221A703B4BF4
:401FC00063221A803A4B1B221A703A4B63221A80394B1B221A70394B06221A70384B52221A70384B384A1278D2B21A70374B40F619121A80364B41F251221A800023FB7067
:4020000019237B6014E0FB785B00DAB2314B1B78DBB203F00103DBB21343DBB203F00303FB704FF4F07000F0ABFC7B68013B7B607B68002B02D0FB78032BE4D17B68002B5C
:4020400002D10320FFF760FF234B4FF480721A80214B07221A70214B00221A70204B48221A701D4B00221A701E4B00221A701E4B02221A701D4A1D4B1B78DBB243F03F039E
:40208000DBB213700837BD4680BD00BF80400040824000408440004086400040884000408A4000408C4000408E4000409040004092400040944000409640004000430040CB
:4020C00000420040A14600400F0100492242004020420040254200400440004006400040084000400940004001400040A243004080B582B000AF234B1B78FB71224B1B78AD
:40210000BB71224B1B787B71214AFB7903F00703DBB213701F4AFB791B09DBB213701A4ABB7943F00303DBB21370184A7B7943F00303DBB21370184B18221A70174B282237
:402140001A70174B03221A70164B40221A70164B40221A70154BBA221A70154B20221A70144B30221A700A2000F066FE074A7B791370054ABB7913700F4B44221A70083728
:40218000BD4680BDCF010049F8460040F94600406E5800406F5800400D5100402D5100403D5100400159004003590040205B0040235B0040585B00407658004080B586B077
:4021C00000AF72B6584B61221A70FFF7DDFE564B01221A70554A554B1B78DBB243F00403DBB213700023FB7513E0FA7D13465B0013445B004E4A13443B613B691A683B69D8
:402200009B889BB210461946FFF762FEFB7D0133FB75FB7D072BE8D90023FB751CE0FA7D13469B0013445B00424A1344FB60FB681B68BB60FB685B687B60FB681A7A5B7AE4
:402240001B0213437B807B88B86879681A46FFF74DFEFB7D0133FB75FB7D012BDFD94FF090403549FFF756FE34480421FFF730FE334834490422FFF739FE334A324B1B785F
:40228000DBB243F00203DBB21370304A2F4B1B78DBB243F00203DBB213702D4A2C4B1B78DBB243F04003DBB213702A4A294B1B78DBB243F01003DBB21370274827490822F2
:4022C000FFF714FE264827490A22FFF70FFE264826490A22FFF70AFE254826490822FFF705FE254825490822FFF700FE244825490822FFF7FBFD244B44221A70234B842265
:402300001A70234A224B1B78DBB243F00803DBB21370FFF7EDFE1F480D490E22FFF7E6FD1837BD4680BD00BF00480040E8460040FC5D00002C5E0000B0000048007600404F
:4023400008760040C80F00480350014013500140A0430040C243004002510040900F0048C0510040980F0048F0510040A40F004812510040B00F004822510040B80F00483E
:4023800032510040C00F00485B160140DB18014022430040B043004080B500AF022001214FF4804241F6FF7300F05CFA03461A460A4B1A700C20012141F6FF7241F6FF7342
:4023C00000F084FA03461A46054B1A70054800F0B1FA002000F0C0FA80BD00BF6487FF1F6587FF1FB925000080B582B000AF444B1B78184600F048FB424B1B78184600F016
:4024000043FB414B1B78FF2B05D100F04BFC03461A463D4B1A703C4B1A783B4B1B7810460C211A46062300F06BFC374B1A78374B9BB2104645F6A0311A4600F0A1FC304B0B
:402440001A78314B1B781046194600F0BDFB304B1B78FF2B05D100F025FC03461A462C4B1A702B4B1A782A4B1B7810460C211A46072300F045FC264B1978244B9AB2254B1A
:402480009BB2084611461A4600F07AFC1D4B1A781F4B1B781046194600F096FB184B1B781846012100F0AAFA164B1B781846012100F0A4FA00F06CFA0346FB71164A164B5F
:4024C0001B78DBB243F02003DBB21370FB79184600F062FA114A114B1B78DBB243F00103DBB213700D4A0D4B1B78DBB243F00203DBB213700A4B01221A600837BD4680BD92
:402500006487FF1F6587FF1F0486FF1F6887FF1F0586FF1F00A2FF1F946400407764004080E200E080B500AF074B1B68002B04D1FFF732FF044B01221A60FFF755FF00F0CF
:4025400051F8024B1B7880BD6087FF1F6564004080B500AF00F0F4F880BD00BF80B483B000AF0346FB80FB88C3F10503084A32F813309AB2074B1B889BB29BB2D31A9BB23E
:402580009BB21BB218460C37BD465DF8047B704700A2FF1F0EA2FF1F80B582B000AF0346FB80B7F90630184600F01AF9034618460837BD4680BD00BF80B400AFBD465DF803
:4025C000047B704780B483B000AF0346FB71044AFB7913700C37BD465DF8047B704700BF7864004080B500AF054B1B78002B04D100F008F8024B01221A7000F019F880BDFA
:402600007487FF1F80B500AF074A074B1B78DBB243F00603DBB21370082000F069F8034B00221A8080BD00BF0159004014A2FF1F80B582B000AF00F0ABF90346FB71244AD4
:40264000234B1B78DBB243F00103DBB21370214A204B1B78DBB243F00103DBB213701E4B1B78BB71BB7943F00203BB71BB7943F00103BB71184ABB791370184B18221A70B1
:40268000174A174B1B78DBB243F04003DBB21370134A134B1B78DBB223F00303DBB21370104BC8221A70104B02221A700F4A0F4B1B78DBB243F00803DBB213700A2000F09A
:4026C000BBFBFB79184600F067F90837BD4680BDAB430040BB4300400359004006590040055900400059004014460040275B004080B584B000AF0346FB71FB790A2B07D0FC
:402700000C2B02D0082B06D008E0C223FB730BE08223FB7308E04223FB7305E0C223FB73002000F05BFB00BF044AFB7B1370FB79184600F015F81037BD4680BD02590040FE
:4027400080B400AF054A054B1B78DBB243F00103DBB21370BD465DF8047B70470059004080B584B000AF0346FB71FB790A2B08D00C2B02D0082B08D00BE04FF48053FB608B
:402780000DE04FF48063FB6009E04FF48073FB6005E00023FB60002000F020FB00BF0C4B00221A80FB6842F2107202FB03F303F6C413084A82FB0312D212DB17D31A064AFE
:4027C0001360064B00221A801037BD4680BD00BF0CA2FF1FAD8BDB6810A2FF1F0EA2FF1F90B585B000AF0346FB801A4B1B889BB2002B09D0174B1B889BB21AB213469B00D6
:4028000013445B00FB6002E0134B1B68FB60134B1B889BB2FA889BB2D31A9BB2FB80B7F90630184603F0F0F8034618460C4903F03FF903461C46F86803F0E6F803462046CA
:40284000194603F0E9F90346BB60BB6818461437BD4690BD0CA2FF1F10A2FF1F14A2FF1F0000204190B585B002AF0446084611461A462346FB710346BB710B46BB8013462A
:402880007B80114B01221A700F4B1878F979BA790023009300230193012300F0B3F90A4B1978BA887B88084611461A4600F04EF9054B1B781846022100F018F9024B1B78AC
:4028C00018460C37BD4690BD0686FF1F90B585B002AF0446084611461A462346FB710346BB710B46BB8013467B80114B00221A700F4B1878F979BA79002300930023019395
:40290000002300F07FF90A4B1978BA887B88084611461A4600F01AF9054B1B781846022100F0E4F8024B1B7818460C37BD4690BD0786FF1F80B485B000AF7860054B1B686A
:40294000FB60FB6840337A681A601437BD465DF8047B704708ED00E080B483B000AF0346FB71054AFB795B01DBB213700C37BD465DF8047B704700BF00E400E000000000CE
:402980000230800803D000BF01380046FCD17047EFF3108072B6704780F31088704700BF80B483B000AF134B7F221A70124B80221A707F23FB710CE0FB79DB0003F18043CE
:4029C00003F5F043FA79013AD2B21A70FB79013BFB71FB79002BEFD1FB79DB0003F1804303F5F04300221A700C37BD465DF8047B704700BF0986FF1F0886FF1F80B485B046
:402A000000AF03460A46FB711346BB710123FB60FB79172B2FD8BB79002B0ED0FB791A01184B1344FA791101164A0A441278D2B242F02002D2B21A700DE0FB791A01114B20
:402A40001344FA7911010F4A0A441278D2B222F02002D2B21A70FB791A010A4B1344FA791101084A0A441278D2B242F00102D2B21A700023FB60FB6818461437BD465DF8F0
:402A8000047B70471070004080B485B000AF0346FB710123FB60FB79172B1DD8FB791A01114B1344FA7911010F4A0A441279D2B242F00402D2B21A71FB791A010A4B13442A
:402AC000FA791101084A0A441278D2B242F00102D2B21A700023FB60FB6818461437BD465DF8047B704700BF1070004080B485B000AF03460A46FB711346BB710123FB60A8
:402B0000FB79172B18D8FB791A010F4B13441B78DBB223F00E03FB72FB791A010A4B1344BA7902F00702D2B25200D1B2FA7A0A43D2B21A700023FB60FB6818461437BD46E0
:402B40005DF8047B704700BF1070004080B485B000AF0346FB710B46BB8013467B800123FB60BB8841F6FF72934202D14FF40053BB807B8841F6FF72934202D14FF40053D2
:402B80007B80FB79172B17D8FB79DB0003F1804303F5EC430433BB60BB68BA881A80FB79DB0003F1804303F5EC430633BB60BB687A881A800023FB60FB6818461437BD462A
:402BC0005DF8047B704700BF80B485B000AF03460A46FB711346BB710123FB60FB79172B07D8FB791A01064B1344BA795A720023FB60FB6818461437BD465DF8047B704787
:402C00001070004090B484B000AF0446084611461A462346FB710346BB710B467B7113463B710123FB60FB79172B34D8FB79DB0003F1804303F5EC43BA7902F07F02D1B23B
:402C40007A79D201D2B20A43D2B21A70FB79DB0003F1804303F5EC433A7E1201D1B23A7902F00F02D2B20A43D2B25A70FB79DB0003F1804303F5EC433A7F02F00F02D2B2F2
:402C80009A70FB79DB0003F1804303F5EC430022DA700023FB60FB6818461037BD4690BC704700BF80B582B000AFFF23FB71FFF76FFE0346BB71104B1B78182B12D90F4B34
:402CC0001B78FB710C4B1B78013BDAB20A4B1A70FB79DB0003F1804303F5F0431B78DAB2064B1A70BB791846FFF756FEFB7918460837BD4680BD00BF0886FF1F0986FF1FD4
:402D000090B484B000AF0446084611461A462346FB710346BB800B46BB711346FB700123FB60FB795BB2002B23DBBB8823F47F6323F00F039BB2002B1BD1FB79DB0003F152
:402D4000804303F5F043BB60BB68BA881A80FB79DB0003F1804303F5F043BA799A70FB79DB0003F1804303F5F043FA78DA700023FB60FB6818461037BD4690BC704700BFA5
:402D800080B485B000AF0346FB710B46BB8013467B800123FB60FB795BB2002B17DBFB79DB0003F1804303F5F0430433BB60BB68BA881A80FB79DB0003F1804303F5F04396
:402DC0000633BB60BB687A881A800023FB60FB6818461437BD465DF8047B704780B483B000AF0346FB7101BE0C37BD465DF8047B704700BF80B582B000AF786008E00C4B61
:402E00001B681846FFF7BCFD7B68A3F500437B607B68B3F5004FF2D8064B1B687A6802FB03F31846FFF7ACFD0837BD4680BD00BF1C86FF1F1486FF1F80B582B000AF03460A
:402E4000FB80FB88044A127802FB03F31846FFF797FD0837BD4680BD1886FF1F80B500AF054B1B78002B04D100F008F8024B01221A7000F061F880BD7587FF1F80B582B0AE
:402E800000AF284A274B1B78DBB243F00203DBB21370254B1B78DBB223F07003FB71224AFB7943F01003DBB21370204A1F4B1B78DBB223F03003DBB213701C4A1B4B1B78B6
:402EC000DBB243F03003DBB21370184A174B1B78DBB223F00F03DBB21370144A134B1B78DBB243F00F03DBB21370FF2000F048F8FF2000F055F8002000F062F80C4A0C4BC3
:402F00001B78DBB243F00103DBB21370094A094B1B78DBB243F00103DBB213700837BD4680BD00BF004F0040024F00400B4F0040A3430040014F004080B400AF0D4A0D4BDC
:402F40001B78DBB243F00103DBB213700A4A0A4B1B78DBB243F00103DBB21370074A074B1B78DBB243F00103DBB21370BD465DF8047B7047A3430040B3430040004F004057
:402F800080B483B000AF0346FB71044BFA7992B21A800C37BD465DF8047B7047044F004080B483B000AF0346FB71044BFA7992B21A800C37BD465DF8047B7047064F004071
:402FC00080B483B000AF0346FB71044AFB7913700C37BD465DF8047B704700BF034F004080B500AF054B1B78002B04D100F008F8024B01221A7000F061F880BD7687FF1F4D
:4030000080B582B000AF284A274B1B78DBB243F00203DBB21370254B1B78DBB223F07003FB71224AFB7943F01003DBB21370204A1F4B1B78DBB223F03003DBB213701C4AC6
:403040001B4B1B78DBB243F03003DBB21370184A174B1B78DBB223F00F03DBB21370144A134B1B78DBB243F00F03DBB21370FF2000F048F8FF2000F055F8002000F062F8F5
:403080000C4A0C4B1B78DBB243F00203DBB21370094A094B1B78DBB243F00103DBB213700837BD4680BD00BF0C4F00400E4F0040174F0040A34300400D4F004080B400AF2C
:4030C0000D4A0D4B1B78DBB243F00203DBB213700A4A0A4B1B78DBB243F00203DBB21370074A074B1B78DBB243F00103DBB21370BD465DF8047B7047A3430040B3430040B4
:403100000C4F004080B483B000AF0346FB71044BFA7992B21A800C37BD465DF8047B7047104F004080B483B000AF0346FB71044BFA7992B21A800C37BD465DF8047B7047DD
:40314000124F004080B483B000AF0346FB71044AFB7913700C37BD465DF8047B704700BF0F4F004080B485B000AF0346FB710B4B1B78DBB223F00203FB730849FB795B0087
:40318000DBB203F00203DAB2FB7B1343DBB20B701437BD465DF8047B704700BF2051004080B400AFBD465DF8047B704780B582B000AF0F2000F03EF800F02CF8FFF7E8FB18
:4031C0000346FB71074A074B1B78DBB243F01003DBB21370FB791846FFF7DEFB0837BD4680BD00BF9A65004080B500AF00F0DCF84FF4004000F004F9054B1B78002B04D1E8
:40320000FFF7CEFF024B01221A70FFF7CFFF80BD7787FF1F80B400AF054B1B78DBB203F00F03DBB21846BD465DF8047B704700BF6A65004080B483B000AF0346FB71044AFC
:40324000FB7913700C37BD465DF8047B704700BF8A65004080B400AFBD465DF8047B704780B582B000AF0F2000F03EF800F02CF8FFF78EFB0346FB71074A074B1B78DBB2B1
:4032800043F01003DBB21370FB791846FFF784FB0837BD4680BD00BF9865004080B500AF00F048F94FF4004000F070F9054B1B78002B04D1FFF7CEFF024B01221A70FFF76F
:4032C000CFFF80BD7887FF1F80B400AF054B1B78DBB203F00F03DBB21846BD465DF8047B704700BF6865004080B483B000AF0346FB71044AFB7913700C37BD465DF8047BDF
:40330000704700BF8865004080B582B000AF1C4B1B78DBB223F00703FB71194AFB791370174B1B78DBB223F00303FB71144AFB79137000F0A1F84FF4004000F07DF84FF45A
:40334000004000F05DF8002000F03EF800F04CF84FF4004000F080F8FFF71AFB0346BB71084A084B1B78DBB243F01003DBB21370BB791846FFF710FB0837BD4680BD00BFF7
:40338000786500409965004080B400AF054A054B1B78DBB263F07F03DBB21370BD465DF8047B70477865004080B500AF054B1B78002B04D1FFF7A8FF024B01221A70FFF72C
:4033C000E3FF80BD7987FF1F80B483B000AF0346FB71044AFB7913700C37BD465DF8047B704700BF8965004080B400AF034B1B78DBB21846BD465DF8047B70476965004077
:4034000080B483B000AF0346FB80044AFB8813800C37BD465DF8047B704700BF146A004080B400AF034B1B889BB21846BD465DF8047B7047946A004080B483B000AF034656
:40344000FB80044AFB8813800C37BD465DF8047B704700BF546A004080B483B000AF0346FB80044AFB8813800C37BD465DF8047B704700BF746A004080B500AF01E0FFF738
:40348000CFFFFFF7B1FF034603F04003002BF6D180BD00BF80B582B000AF1C4B1B78DBB223F00703FB71194AFB791370174B1B78DBB223F00303FB71144AFB79137000F05F
:4034C000A1F84FF4004000F07DF84FF4004000F05DF8002000F03EF800F04CF84FF4004000F080F8FFF754FA0346BB71084A084B1B78DBB243F01003DBB21370BB791846B8
:40350000FFF74AFA0837BD4680BD00BF736400409665004080B400AF054A054B1B78DBB263F07F03DBB21370BD465DF8047B70477364004080B500AF054B1B78002B04D1CE
:40354000FFF7A8FF024B01221A70FFF7E3FF80BD7A87FF1F80B483B000AF0346FB71044AFB7913700C37BD465DF8047B704700BF8665004080B400AF034B1B78DBB2184606
:40358000BD465DF8047B70476665004080B483B000AF0346FB80044AFB8813800C37BD465DF8047B704700BF086A004080B400AF034B1B889BB21846BD465DF8047B7047E5
:4035C000886A004080B483B000AF0346FB80044AFB8813800C37BD465DF8047B704700BF486A004080B483B000AF0346FB80044AFB8813800C37BD465DF8047B704700BF0B
:40360000686A004080B500AF01E0FFF7CFFFFFF7B1FF034603F04003002BF6D180BD00BF80B582B000AF786000F03CF8786800F009F8072000F018F800F028F80837BD4680
:4036400080BD00BF80B485B000AF7860054B1B68FB60FB6850337A681A601437BD465DF8047B704708ED00E080B483B000AF0346FB71054AFB795B01DBB213700C37BD4600
:403680005DF8047B704700BF04E400E080B400AF034B10221A60BD465DF8047B704700BF00E100E080B400AF034B10221A60BD465DF8047B704700BF80E100E080B500AFBE
:4036C000054B1B78002B04D100F008F8024B01221A7000F023F880BD7B87FF1F80B400AF094B72221A70094B20221A70084B06221A70084B47221A70074B02221A70BD46D2
:403700005DF8047B704700BF8E6400408964004029640040396400408D64004080B582B000AFFFF735F90346FB71104A0F4B1B78DBB243F02003DBB213700D4A0C4B1B789B
:40374000DBB243F01003DBB213700A4A094B1B78DBB243F01003DBB2137000F02FF8FB791846FFF719F90837BD4680BD9E640040996400409D64004080B483B000AF0023DF
:40378000FB710C4B1B78BB71BB7903F02003002B09D0094B1B78FB71BB7903F01E03002B01D00023FB71FB7918460C37BD465DF8047B7047696400404A64004080B400AF92
:4037C000094A094B1B78DBB243F00403DBB21370064A064B1B78DBB243F00403DBB21370BD465DF8047B7047A2430040B243004080B483B000AF0346FB71044AFB791370B5
:403800000C37BD465DF8047B704700BF7A64004080B483B000AF0346FB71044AFB7913700C37BD465DF8047B704700BF7964004080B483B000AF0346FB71044AFB7913700D
:403840000C37BD465DF8047B704700BF7264004080B500AF204A204B1B78DBB203F00103DBB213701D4A1D4B1B78DBB223F00303DBB213701A4A1A4B1B78DBB223F030037B
:40388000DBB21370164A164B1B78DBB243F03003DBB21370124A124B1B78DBB223F00F03DBB213700E4A0E4B1B78DBB243F00F03DBB213700B4A0B4B1B78DBB243F001036B
:4038C000DBB21370012000F05FF8012000F06EF8082000F03DF880BD184F00401A4F0040234F0040194F004080B400AF0D4A0D4B1B78DBB243F00403DBB213700A4A0A4B00
:403900001B78DBB243F00403DBB21370074A074B1B78DBB243F00103DBB21370BD465DF8047B7047A3430040B3430040184F004080B500AF054B1B78002B04D1FFF788FF3E
:40394000024B01221A70FFF7CFFF80BD7D87FF1F80B483B000AF0346FB71044AFB7913700C37BD465DF8047B704700BF1B4F004080B400AF034B1B78DBB21846BD465DF8D9
:40398000047B70471B4F004080B485B000AF0346FB80FB88FB81044AFB8913801437BD465DF8047B704700BF1C4F004080B483B000AF0346FB80044AFB8813800C37BD4620
:4039C0005DF8047B704700BF1E4F004080B582B000AF786000F03CF8786800F009F8072000F018F800F028F80837BD4680BD00BF80B485B000AF7860054B1B68FB60FB68F7
:403A00008C337A681A601437BD465DF8047B704708ED00E080B483B000AF0346FB71054AFB795B01DBB213700C37BD465DF8047B704700BF13E400E080B400AF034B4FF4E8
:403A400000221A60BD465DF8047B704700E100E080B400AF034B4FF400221A60BD465DF8047B704780E100E080B400AF054B1B78DBB203F020035B09DBB21846BD465DF86C
:403A8000047B7047F151004080B400AF054B1B78DBB203F00103DBB21846BD465DF8047B704700BF0151004080B582B000AF786000F03CF8786800F009F8072000F018F830
:403AC00000F028F80837BD4680BD00BF80B485B000AF7860054B1B68FB60FB6890337A681A601437BD465DF8047B704708ED00E080B483B000AF0346FB71054AFB795B0140
:403B0000DBB213700C37BD465DF8047B704700BF14E400E080B400AF034B4FF480121A60BD465DF8047B704700E100E080B400AF034B4FF480121A60BD465DF8047B704730
:403B400080E100E080B500AF204A204B1B78DBB203F00103DBB213701D4A1D4B1B78DBB223F00303DBB213701A4A1A4B1B78DBB223F03003DBB21370164A164B1B78DBB2EC
:403B800043F03003DBB21370124A124B1B78DBB223F00F03DBB213700E4A0E4B1B78DBB243F00F03DBB213700B4A0B4B1B78DBB243F00103DBB21370632000F05FF86320FC
:403BC00000F06EF8082000F03DF880BD244F0040264F00402F4F0040254F004080B400AF0D4A0D4B1B78DBB243F00803DBB213700A4A0A4B1B78DBB243F00803DBB21370F4
:403C0000074A074B1B78DBB243F00103DBB21370BD465DF8047B7047A3430040B3430040244F004080B500AF054B1B78002B04D1FFF788FF024B01221A70FFF7CFFF80BD9E
:403C40007E87FF1F80B483B000AF0346FB71044AFB7913700C37BD465DF8047B704700BF274F004080B400AF034B1B78DBB21846BD465DF8047B7047274F004080B485B06F
:403C800000AF0346FB80FB88FB81044AFB8913801437BD465DF8047B704700BF284F004080B483B000AF0346FB80044AFB8813800C37BD465DF8047B704700BF2A4F004057
:403CC00080B485B000AF0346FB710B4B1B78DBB223F02003FB730849FB795B01DBB203F02003DAB2FB7B1343DBB20B701437BD465DF8047B704700BF3051004080B485B0F7
:403D000000AF0346FB710B4B1B78DBB223F04003FB730849FB799B01DBB203F04003DAB2FB7B1343DBB20B701437BD465DF8047B704700BF305100402DE9F04F8BB01F4613
:403D400080468946164600F0C7F9DFF8D8A204469AF900300D46013304D03046394600F0DBFF20B9204629460BB0BDE8F08F4046494600F0D1FF834660BB304639460022CD
:403D8000002301F02DFD0028ECD09AF900309E4C01229E4900208DE814005A1CCDF820B0CDE90289CDE90467CDE906010DD0022B0BD0684600F0DCFF002800F09380089B2B
:403DC0001BB101F0C5FF089B0360DDE906010BB0BDE8F08F404649460022002301F000FDF8B1304639460022002301F0F9FC834600284ED084489AF9003001210022002479
:403E00000025CDE90289CDE90467CDE90645019000910892002BCCD07C4B0022CDE90623D3E72046294600F071FF834600285ED0204629460022002301F0D2FC002891D03F
:403E40004046494600F062FF00288BD03046394600F05CFF002885D09AF900306A480421002200240025022BCDE90289CDE90467CDE9064501900091089200F088806846A5
:403E800000F076FF002800F08280089B002B9CD097E73046394600F039FF00283FF462AF304639460022002301F0A4FC00283FF459AF55499AF800300122CDF820B0CDE946
:403EC0000289CDE9046701910092002B3CD050490020022BCDE9060130D101F039FF21230360D2E701F034FF2123036067E74046494600F00BFF00289AD03046394600F0EF
:403F000005FF002894D02046294600F005FF00BB3D4A9AF8004001230890CDE90289CDE90467019200937CB10020002102460B4601F018FB022CCDE90601CED0684600F09E
:403F400017FF0028A1D1C8E700220023CDE90623F4E72D499AF900300322CDF820B0CDE90289CDE9046701910092ABB9294D4FF060444046494600220023CDE9064501F061
:403F800039FC50BB9AF90030022B7FF478AF01F0DFFE2223036078E71F4D00244046494600220023CDE9064501F024FC0028E9D000221A4B3046394601F0AAF904460D46D8
:403FC00000F0DEFE22462B4601F00AFC0028D9D10F4B0022CDE90623D4E700220F4B3046394601F095F904460D4600F0C9FE22462B4601F0F5FB0028C4D1094B4FF060424D
:40400000CDE90623BEE700BF405E00000000F03F0000F0FFFFFFEF470000F07F0000E03FFFFFEFC72086FF1F2DE9F0478AB006460F4600F0A1FDDFF898A004469AF9003075
:404040000D4601330FD03046394600F065FE50B14FF000084FF000093046394642464B4601F0C8FB20B9204629460AB0BDE8F08716499AF8004001220023CDE90467CDE96E
:40408000026701910092089364B9CDE90689684600F06EFE80B1089B9BB9DDE906010AB0BDE8F0874046494642464B4601F05AFA022CCDE90601EAD101F04AFE21230360A8
:4040C000E9E701F045FE089B0360E6E7445E00002086FF1F000000002DE9F04F144623F00047024657EA04000E468FB01D469C46214634D06E4B26F0004A9A459346B146E2
:4041000026DC24D09F4223DC694B9F4200F08F80B9F1000FC0F28F804FF0000879BB644B9F4200F0A580634B9F4267D0BCF1804F00F0E283604B9C4521D1B9F1000F1EDBB4
:40414000104631460FB0BDE8F04F00F015BD62B10AF1404000F5801050EA0B0007D10346544918460FB0BDE8F08F5745CCDD53480FB0BDE8F04F00F0FDBD4FF000081046EC
:404180003146CDF808C0009200F0BCFD009ADDF808C0BBF1000F20D04FEAD97909F1FF3958EA09037AD0464B9F4240F38F8003F104739F4240F31084424B9A4540F392830E
:4041C000BCF1000F40F3928337A1D1E900010B46024601F09DF80346C3E7BAF1000F04D0344B29F0404E9E45D6D1BCF1000FC0F2B683B9F1000F08DB0346B2E7BCF1000FF7
:40420000C0F2528413463146ABE70AF1404A0AF5801A58EA0A0340F05E8402460B4600F0C3FE0B46024601F09DF9034699E700293FF46EAF8CE7244B9F422CDCA3F1547343
:404240009F427FF769AF40F213403B15834240F34B84C3F58663033321FA03F000FA03F38B427FF459AF00F00100C0F1020855E70AF1404303F5801353EA0B0300F039832E
:40428000104B9A4540F36483BCF1000FC0F22E832346294665E74FF002083FE7104631463346BCE7AFF300809C7500883CE4377E0000F07F0000F03F0000E03F485E00001C
:4042C0000000E041FFFFEF3FFFFF3F43BAF5801F4FF0000205DACA4B01F01AF88A466FF034024FEA2A53C74ECAF3130AA3F2FF334AF07F571344B2450C9347F4401740F3D8
:40430000D083C14B9A4540F307840026B4460C9BA7F5801701330C933946BC4B4FEACC0C6344D3E900AB52465B46CDF834C0CDE9060100F039FE52465B46CDE90801DDE97B
:40434000060100F033FE02460B460020B04901F009F902460B46DDE90801CDE90A2300F0D7FF02460B46CDE90223CDE904237B1043F0005303F500239919002000230646A1
:404380000F460293DDE902231046194632463B46CDE9000100F0BCFF02460B46DDE9080100F002FE5246CDE908015B463046394600F0FAFD02460B46DDE9060100F0F4FDA5
:4043C00002460B46DDE9000100F0A2FF02460B46DDE9080100F0E8FDDDE90A2300F098FFDDE90423CDE906011046194600F090FF02460B4606460F4600F08AFF6EA3D3E9B7
:40440000002382468B463046394600F081FF6CA3D3E9002300F0CAFD32463B4600F078FF69A3D3E9002300F0C1FD32463B4600F06FFF67A3D3E9002300F0B8FD32463B46DF
:4044400000F066FF64A3D3E9002300F0AFFD32463B4600F05DFF62A3D3E9002300F0A6FD02460B465046594600F052FFDDE9042306460F46DDE9000100F098FDDDE90623D1
:4044800000F046FF32463B4600F090FDDDE9006782468B4632463B463046394600F038FF00225C4BCDE9080100F080FD52465B4600F07CFD02980F460646DDE90001324665
:4044C0003B4600F025FF32463B46CDE90001DDE9060100F01DFF0022CDE906014D4B3046394600F061FDDDE9082300F05DFD02460B465046594600F057FDDDE9042300F0BA
:4045000007FF02460B46DDE9060100F04FFD82468B46DDE9000152465B4600F047FD32A3D3E9002302980F46064600F0F1FE30A3D3E90023CDE904013046394600F0E8FE00
:40454000DDE90023CDE906013046394600F02CFD02460B465046594600F026FD26A3D3E9002300F0D5FE02460B46DDE9060100F01DFDDDF834C0284BCDF818C06344D3E98F
:40458000002300F013FDCDE900010C9800F05AFE06460F46DDE90401204BDDF818C09C44DDE90023DCE900AB00F000FD52465B4636E000BFAFF30080EF4E454A287ECA3FE0
:4045C00065DBC9934A86CD3F01411DA96074D13F4D268F515555D53FFFAB6FDBB66DDB3F033333333333E33F000000E009C7EE3FF5015B14E02F3EBEFD033ADC09C7EE3F91
:40460000000040438E98030079B60B00705E00000000F03F00000840605E0000505E0000CDE906AB00F0C2FC32463B4600F0BEFC029832463B4682468B4600F0B5FCDDE998
:40464000062300F0B1FCDDE9042300F0ADFC02460B46DDE9000100F0A7FCCDE9020108F1FF3858EA09030CBFD54BD64B0022CDE904230023CDE900450093DDE90067204675
:4046800032463B46294600F08FFC52465B4600F03FFEDDE90223804689462046294600F037FE02460B464046494600F07FFC04460D465246304639465B46CDE9024500F066
:4046C00027FE06460F4620463B462946324600F06DFCBD4B824699428946884640F3138101F13F4303F5E003034340F0E581A0A3D3E90023DDE9020100F058FC32460446A2
:404700000D463B465046494600F04EFC02460B462046294601F08CF8002840F0CD814C462015A0F2FE304FF4801101414144C1F30A50A64CA0F2FF35C1F3130BC0F582606C
:4047400003302C414BF4801B21EA040300224BFA00FB3946304600F027FC06460F46DDE902018BEAE87B0BEBD87B32463B464FEA0B5A00F01BFC80A3D3E90023002420468E
:404780000D4600F0C5FD3246804689463B462046294600F009FC02460B46DDE9020100F003FC77A3D3E9002300F0B2FD76A3D3E9002306460F462046294600F0A9FD024667
:4047C0000B463046394600F0F1FB06460F4632463B464046494600F0E9FB42464B4604460D4600F0E1FB02460B463046394600F0DBFB2246804689462B462046294600F00B
:4048000087FD63A3D3E9002306460F4600F080FD61A3D3E9002300F0C7FB32463B4600F077FD5FA3D3E9002300F0C0FB32463B4600F06EFD5CA3D3E9002300F0B5FB324639
:404840003B4600F065FD5AA3D3E9002300F0AEFB32463B4600F05CFD02460B462046294600F0A2FB06460F4632463B462046294600F04EFD0022CDE900014FF080433046B8
:40488000394600F091FB02460B46DDE9000100F069FE424606460F464B462046294600F037FD42464B4600F081FB02460B463046394600F079FB22462B4600F075FB02469B
:4048C0000B4600203F4900F06FFB8A44BAF5801F0246C0F227815346DDE9040100F018FD03463EE4BCF1000FFFF66EAC0023194637E40B46334934E433461046314600F050
:4049000007FD03462DE4324B21F000449C4240F3FA80304B0B4403430CD132463B4600F043FB02460B46DDE9020100F06DFF00283FF4F6AE20A3D3E90023DDE9040100F08E
:40494000E7FC1DA3D3E9002300F0E2FC034608E4BCF1000FCADA234605F1004101E402460B460020174900F0FDFD42E4AFF30080FE822B654715973C00000000432EE63FAD
:40498000EF39FAFE422EE63F396CA80C615C20BED0A4BE726937663EF16BD2C541BDBB3E2CDE25AF6A56113F93BDBE166CC1663F3E5555555555C53F59F3F8C21F6EA50174
:4049C0000000F0BF0000F03FFFFF8F40FFFF0F00FFCB904000346F3F634B9A4582DD634B9A453FF7EDAB0022604B00F0DDFA54A3D3E9002306460F4600F08AFC52A3D3E90A
:404A00000023CDE900013046394600F081FC3246CDE902013B463046394600F079FC002282468B4630463946514B00F071FC02460B4647A1D1E9000100F0B6FA32463B46B0
:404A400000F066FC02460B4600204A4900F0ACFA02460B465046594600F05AFC3EA3D3E9002300F055FC02460B46DDE9020100F09BFA06460F46DDE9000132463B4600F0B5
:404A800095FADDE90023002082468B4600F08CFA02460B463046394600F086FACDE90201DDE50026B44637E4334600202F4900F059FD0346FFF755BB29A3D3E90023DDE984
:404AC000040100F025FC26A3D3E9002300F020FC0346FFF746BBB8F1010F03467FF441AB01F10041FFF73DBB00297FF446ABC3F58263033347FA03F000FA03F3BB4217D0C2
:404B00008846FFF710BB1B4B9C423FF709AEDDE90023924693462EE64FF480264FF0010CFFF7FABB5A4600F0BBF902460B46D3E600F00100C0F10208FFF7F5BAAFF300801E
:404B4000000000604715F73F44DF5DF80BAE543E555555555555D53FFE822B654715F73F9C7500883CE4377EFEFFEF3F0000F03F0000D03F0000E03F2DE9F041604E0C468F
:404B8000B6460E40764505460B4600F098800029024676DD5FEA215E00F08180AEF2FF3EC3F313031EF0010F43F480135ED100273C46D10F01EB43034FEA6E0E5200162017
:404BC0004FF4001165189D424FEAD2764FEA420202DC5B1B6C180F44013806EB43034FEA5101EFD1844620264FF000410AE0A34220D0D50F013E4FEA510105EB43034FEAB5
:404C0000420220D09C420CEB0105F0DA002D05EB010C09DBA0461B1B954288BF03F1FF334446521B0844E4E7BCF1000FF2DB04F10108F0E7954217D8002D05EB010C48DBAE
:404C400098460023ECE7134315D140087B1003F17F5303F50013FA0703EB0E57394648BF40F00040BDE8F0811C46C2E7D10F01EB430352009BE7411C31D000F00103184481
:404C8000E3E721F000460643ECD079BB8E46D30AAEF1150E5205002BF9D0DC0222D400215B00D80201F10101FAD5C1F10100C1F1200422FA04F4234386448A406EE70246BB
:404CC0000B4600F025FB2A46234600F06FF9BDE8F081BCF1000FAADAA0460023A0E701373046B3E7202401200021E2E702460B4600F05AF902460B4600F034FCB2E700BFB8
:404D00000000F07F21F00041704700BF41F0004101F58010C00F704710B431F0004408D0114BA1F580129A4208D804205DF8044B704718B902205DF8044B704701F1FF417E
:404D4000094B01F5E0019942EFD9B4F5801F01D20320EBE7054B9C4201D00020E6E7B0FA80F04009E2E700BFFFFFDF7F0000F07F0020704700200149704700BF0000F87F85
:404D8000F0B5C1F30A5EAEF2FF35132D83B002460B460C464FEAD17607462EDC002D48DB3C49294101EA030010432BD049080B4053EA02070CD04FF48023132D24EA0101BA
:404DC00043FA05F444EA01040CBF4FF0004700273149234601EBC606D6E900453A462046294600F0E3F8CDE90001DDE9000122462B4600F0D9F803B0F0BD332D06DDB5F5AE
:404E0000806F43D01046194603B0F0BDAEF2134E4FF0FF3121FA0EF10142F3D049080142D6D04FF0804320EA010143FA0EF70F43CEE721F000410143E4D0C3F3130141EAFB
:404E4000000CCCF1000141EA0C0C13495C0C4FEA1C3C0CF4002C640401EBC6014CEA0403D1E900452046294600F0A0F8CDE90001DDE9000122462B4600F096F8024621F0C2
:404E8000004141EAC67310461946BDE700F08EF8BAE700BFFFFF0F00805E000000000000F8B5C1F30A5604460D460B46174616BB21F00043034332D00022314B00F028FA0A
:404EC000304A044697420D460B4637DB40F2FE72C1F30A56363E3E44964215DD24A1D1E9000122462B4600F053F821A3D3E9002300F00EFAF8BD40F2FF72964224D040F264
:404F0000FE723E449642E9DC002E09DD23F0FF4323F4E00343EA065520462946F8BDF8BD16F1350F15DA4CF250339F42D6DC12A1D1E9000122462B4600F02AF80EA3D3E964
:404F4000002300F0E5F9F8BD02460B4600F02EF8F8BD23F0FF4323F4E003363643EA0655204629460022084B00F0D2F9F8BD00BF9C7500883CE4377E59F3F8C21F6EA501C4
:404F800000005043B03CFFFF0000903CAFF3008003F0004321F0004243EA0201704700BF81F0004102E000BF83F0004330B54FEA41044FEA430594EA050F08BF90EA020F86
:404FC0001FBF54EA000C55EA020C7FEA645C7FEA655C00F0E2804FEA5454D4EB5555B8BF6D420CDD2C4480EA020281EA030382EA000083EA010180EA020281EA0303362DD2
:4050000088BF30BD11F0004F4FEA01314FF4801C4CEA113102D0404261EB410113F0004F4FEA03334CEA133302D0524263EB430394EA050F00F0A780A4F10104D5F1200EDA
:405040000DDB02FA0EFC22FA05F2801841F1000103FA0EF2801843FA05F359410EE0A5F120050EF1200E012A03FA0EFC28BF4CF0020C43FA05F3C01851EBE37101F00045F4
:4050800007D54FF0000EDCF1000C7EEB00006EEB0101B1F5801F1BD3B1F5001F0CD349085FEA30004FEA3C0C04F101044FEA445212F5800F80F09A80BCF1004F08BF5FEA13
:4050C000500C50F1000041EB045141EA050130BD5FEA4C0C404141EB010111F4801FA4F10104E9D191F0000F04BF01460020B1FA81F308BF2033A3F10B03B3F120020CDAEB
:405100000C3208DD02F1140CC2F10C0201FA0CF021FA02F10CE002F11402D8BFC2F1200C01FA02F120FA0CFCDCBF41EA0C019040E41AA2BF01EB0451294330BD6FEA0404FB
:405140001F3C1CDA0C340EDC04F11404C4F1200220FA04F001FA02F340EA030021FA04F345EA030130BDC4F10C04C4F1200220FA02F001FA04F340EA0300294630BD21FA35
:4051800004F0294630BD94F0000F83F4801306BF81F480110134013D4EE77FEA645C18BF7FEA655C29D094EA050F08BF90EA020F05D054EA000C04BF1946104630BD91EA89
:4051C000030F1EBF0021002030BD5FEA545C05D14000494128BF41F0004130BD14F580043CBF01F5801130BD01F0004545F0FE4141F470014FF0000030BD7FEA645C1ABF39
:40520000194610467FEA655C1CBF0B46024650EA013406BF52EA033591EA030F41F4002130BD00BF90F0000F04BF0021704730B54FF4806404F132044FF000054FF00001FF
:4052400050E700BF90F0000F04BF0021704730B54FF4806404F1320410F0004548BF40424FF000013EE700BF42004FEAE2014FEA31014FEA02701FBF12F07F4393F07F4F7E
:4052800081F06051704792F0000F14BF93F07F4F704730B54FF4607401F0004521F0004120E700BF50EA010208BF704730B54FF000050AE050EA010208BF704730B511F0F0
:4052C000004502D5404261EB41014FF4806404F132045FEA915C3FF4DCAE4FF003025FEADC0C18BF03325FEADC0C18BF033202EBDC02C2F1200300FA03FC20FA02F001FADE
:4053000003FE40EA0E0021FA02F11444C1E600BF70B54FF0FF0C4CF4E06C1CEA11541DBF1CEA135594EA0C0F95EA0C0F00F0DEF82C4481EA030621EA4C5123EA4C5350EA4D
:40534000013518BF52EA033541F4801143F4801338D0A0FB02CE4FF00005E1FB02E506F00042E0FB03E54FF00006E1FB03569CF0000F18BF4EF0010EA4F1FF04B6F5007FAC
:4053800064F5407404D25FEA4E0E6D4146EB060642EAC62141EA55514FEAC52040EA5E504FEACE2EB4F1FD0C88BFBCF5E06F1ED8BEF1004F08BF5FEA500E50F1000041EBA7
:4053C000045170BD06F0004646EA010140EA020081EA0301B4EB5C04C2BFD4EB0C0541EA045170BD41F480114FF0000E013C00F3AB8014F1360FDEBF002001F0004170BD51
:40540000C4F10004203C35DA0C341BDC04F11404C4F1200500FA05F320FA04F001FA05F240EA020001F0004221F0004110EBD37021FA04F642EB06015EEA430E08BF20EA96
:40544000D37070BDC4F10C04C4F1200500FA04F320FA05F001FA04F240EA020001F0004110EBD37041F100015EEA430E08BF20EAD37070BDC4F1200500FA05F24EEA020E70
:4054800020FA04F301FA05F243EA020321FA04F001F0004121FA04F220EA020000EBD3705EEA430E08BF20EAD37070BD94F0000F0FD101F00046400041EB010111F4801F95
:4054C00008BF013CF7D041EA060195F0000F18BF704703F00046520043EB030313F4801F08BF013DF7D043EA0603704794EA0C0F0CEA135518BF95EA0C0F0CD050EA4106AA
:4055000018BF52EA4306D1D181EA030101F000414FF0000070BD50EA410606BF1046194652EA430619D094EA0C0F02D150EA013613D195EA0C0F05D152EA03361CBF104620
:4055400019460AD181EA030101F0004141F0FE4141F470014FF0000070BD41F0FE4141F4780170BD70B54FF0FF0C4CF4E06C1CEA11541DBF1CEA135594EA0C0F95EA0C0FA0
:4055800000F0A7F8A4EB050481EA030E52EA03354FEA013100F088804FEA03334FF0805545EA131343EA12634FEA022245EA111545EA10654FEA00260EF000419D4208BF5D
:4055C000964244F1FD0404F5407402D25B084FEA3202B61A65EB03055B084FEA32024FF480104FF4002CB6EB020E75EB030E22BFB61A754640EA0C005B084FEA3202B6EBDD
:40560000020E75EB030E22BFB61A754640EA5C005B084FEA3202B6EB020E75EB030E22BFB61A754640EA9C005B084FEA3202B6EB020E75EB030E22BFB61A754640EADC006F
:4056400055EA060E18D04FEA051545EA16754FEA06164FEAC30343EA52734FEAC2025FEA1C1CC0D111F4801F0BD141EA00014FF000004FF0004CB6E711F4801F04BF0143CF
:405680000020B4F1FD0C88BFBCF5E06F3FF6AFAEB5EB030C04BFB6EB020C5FEA500C50F1000041EB045170BD0EF0004E4EEA113114EB5C04C2BFD4EB0C0541EA045170BD6B
:4056C00041F480114FF0000E013C90E645EA060E8DE60CEA135594EA0C0F08BF95EA0C0F3FF43BAF94EA0C0F0AD150EA01347FF434AF95EA0C0F7FF425AF104619462CE7D7
:4057000095EA0C0F06D152EA03353FF4FDAE1046194622E750EA410618BF52EA43067FF4C5AE50EA41047FF40DAF52EA43057FF4EBAE12E74FF0FF3C06E000BF4FF0010C83
:4057400002E000BF4FF0010C4DF804CD4FEA410C7FEA6C5C4FEA430C18BF7FEA6C5C1BD001B050EA410C0CBF52EA430C91EA030F02BF90EA020F0020704710F1000F91EA2B
:40578000030F58BF994208BF90422CBFD8176FEAE37040F0010070474FEA410C7FEA6C5C02D150EA013C07D14FEA430C7FEA6C5CD6D152EA033CD3D05DF8040B704700BFAD
:4057C0008446104662468C461946634600E000BF01B5FFF7B7FF002848BF10F1000F01BD4DF808EDFFF7F4FF0CBF012000205DF808FB00BF4DF808EDFFF7EAFF34BF012096
:4058000000205DF808FB00BF4DF808EDFFF7E0FF94BF012000205DF808FB00BF4DF808EDFFF7CEFF94BF012000205DF808FB00BF4DF808EDFFF7C4FF34BF012000205DF853
:4058400008FB00BF4FEA410212F5001215D211D56FF47873B3EB625212D94FEAC12343F0004343EA505311F0004F23FA02F018BF404270474FF00000704750EA013005D170
:4058800011F0004008BF6FF0004070474FF00000704700BF80F0004002E000BF81F0004142001FBF5FEA410392EA030F7FEA226C7FEA236C6AD04FEA1262D2EB1363C1BF0E
:4058C000D218414048404140B8BF5B42192B88BF704710F0004F40F4000020F07F4018BF404211F0004F41F4000121F07F4118BF494292EA030F3FD0A2F1010241FA03FC0D
:4059000010EB0C00C3F1200301FA03F100F0004302D5494260EB4000B0F5000F13D3B0F1807F06D340084FEA310102F10102FE2A51D2B1F1004F40EBC25008BF20F001006D
:4059400040EA03007047490040EB000010F4000FA2F10102EDD1B0FA80FCACF1080CB2EB0C0200FA0CF0AABF00EBC25052421843BCBFD0401843704792F0000F81F40001F7
:4059800006BF80F400000132013BB5E74FEA41037FEA226C18BF7FEA236C21D092EA030F04D092F0000F08BF0846704790EA010F1CBF0020704712F07F4F04D1400028BFA8
:4059C00040F00040704712F100723CBF00F50000704700F0004343F0FE4040F4000070477FEA226216BF08467FEA23630146420206BF5FEA412390EA010F40F480007047E4
:405A00004FF0000304E000BF10F0004348BF40425FEA000C08BF704743F0964301464FF000001CE050EA010208BF70474FF000030AE000BF50EA010208BF704711F00043AF
:405A400002D5404261EB41015FEA010C02BF84460146002043F0B64308BFA3F18053A3F50003BCFA8CF2083AA3EBC25310DB01FA02FC634400FA02FCC2F12002BCF1004F95
:405A800020FA02F243EB020008BF20F00100704702F1200201FA02FCC2F1200250EA4C0021FA02F243EB020008BF20EADC7070474FF0FF0C1CEAD0521EBF1CEAD15392EAA8
:405AC0000C0F93EA0C0F6FD01A4480EA010C400218BF5FEA41211ED04FF0006343EA501043EA5111A0FB01310CF00040B1F5000F3EBF490041EAD3715B0040EA010062F123
:405B00007F02FD2A1DD8B3F1004F40EBC25008BF20F00100704790F0000F0CF0004C08BF49024CEA502040EA51207F3AC2BFD2F1FF0340EAC250704740F400004FF0000377
:405B4000013A5DDC12F1190FDCBF00F000407047C2F10002410021FA02F1C2F1200200FA02FC5FEA310040F1000053EA4C0308BF20EADC70704792F0000F00F0004C02BF9A
:405B8000400010F4000F013AF9D040EA0C0093F0000F01F0004C02BF490011F4000F013BF9D041EA0C018FE70CEAD15392EA0C0F18BF93EA0C0F0AD030F0004C18BF31F05A
:405BC000004CD8D180EA010000F00040704790F0000F17BF90F0004F084691F0000F91F0004F14D092EA0C0F01D142020FD193EA0C0F03D14B0218BF084608D180EA0100E9
:405C000000F0004040F0FE4040F40000704740F0FE4040F4400070474FF0FF0C1CEAD0521EBF1CEAD15392EA0C0F93EA0C0F69D0A2EB030280EA010C49024FEA402037D06D
:405C40004FF0805343EA111143EA10130CF000408B4238BF5B0042F17D024FF4000C8B4224BF5B1A40EA0C00B3EB510F24BFA3EB510340EA5C00B3EB910F24BFA3EB910330
:405C800040EA9C00B3EBD10F24BFA3EBD10340EADC001B0118BF5FEA1C1CE0D1FD2A3FF650AF8B4240EBC25008BF20F0010070470CF0004C4CEA50207F32C2BFD2F1FF0357
:405CC00040EAC250704740F400004FF00003013A37E792F0000F00F0004C02BF400010F4000F013AF9D040EA0C0093F0000F01F0004C02BF490011F4000F013BF9D041EAAA
:405D00000C0195E70CEAD15392EA0C0F08D142027FF47DAF93EA0C0F7FF470AF084676E793EA0C0F04D14B023FF44CAF08466EE730F0004C18BF31F0004CCAD130F0004260
:405D40007FF45CAF31F000437FF43CAF5FE700BF014B1868704700BF8486FF1F0E4B70B51E460E4C0025E41AA410A54204D056F8253098470135F8E700F08CF8084B094CF3
:405D80001E46E41AA4100025A54204D056F8253098470135F8E770BDA05E0000A05E0000A05E0000A85E000010B5431E0A44914204D011F8014B03F8014FF8E710BD034679
:405DC0000244934202D003F8011BFAE770470000000000000000000001000000000000000000000001000000FFFFFFFF0000000000000000FFFFFFFF65650000004F0040B4
:405E0000300040510040300000000140000A800A0140800500140140000800400140000A004C01400002105001401000000A0140000F0048800000500140800F00481000D4
:405E4000706F770073717274000000000000000000000000000000000000004003B8E23F000000000000000006D0CF43EBFD4C3E000000000000F03F000000000000F83F26
:405E8000000000000000304300000000000030C343000000F8B500BFF8BC08BC9E4670474D000000411E0000F8B500BFF8BC08BC9E46704729000000C85E00000881FF1F99
:405EC00080050000901B0000000000000100000001000000010000000100000001000000010000000100000001000000010000000100000001000000010000000100000065
:405F00000100000001000000010000000100000001000000010000000100000000000000010000000000000000000000000000000000000000000000000000000000000059
:405F4000000000000000000000000000000000000000000000000000000000000000000001000000010000000000000001000000000000000100000000000000010000001C
:405F800001000000010000000000000001000000010000000100000000000000010000000100000001000000000000000100000001000000000000000100000000000000D6
:405FC000010000000000000001000000000000000100000000000000000000000000000001000000000000000000000000000000010000000000000001000000010000009A
:406000000000000001000000000000000100000000000000000000000000000001000000010000000100000000000000010000000100000001000000010000000100000056
:40604000000000000100000001000000000000000000000000000000000000000000000001000000000000000000000000000000010000000000000001000000000000001B
:4060800000000000000000000000000000000000010000000100000001000000010000000100000001000000010000000100000000000000010000000000000001000000D6
:4060C000000000000100000000000000010000000100000001000000000000000100000001000000000000000000000000000000000000000000000000000000000000009A
:406100000100000000000000010000000000000001000000000000000100000000000000000000000000000001000000010000000100000001000000000000000100000056
:406140000000000001000000010000000100000001000000010000000000000001000000000000000100000000000000010000000100000001000000010000000000000014
:4061800000000000000000000100000000000000010000000000000000000000000000000100000000000000000000000000000001000000000000000000000000000000DB
:4061C0000100000001000000000000000100000001000000010000000000000001000000000000000100000000000000010000000000000001000000010000000100000094
:406200000100000001000000000000000100000001000000000000000000000000000000000000000000000000000000000000000100000000000000000000000000000059
:406240000000000000000000010000000000000000000000000000000100000001000000000000000100000001000000010000000100000001000000010000000100000014
:4062800000000000010000000100000001000000010000000100000000000000010000000100000001000000010000000000000000000000000000000000000000000000D5
:4062C0000000000000000000010000000000000000000000000000000000000000000000000000000000000000000000000000000100000001000000010000000100000099
:40630000010000000100000001000000010000000100000001000000010000000100000001000000010000000100000001000000010000000100000001000000010000004D
:40634000040000000500000007000000010000000B000000050000000A0000000B000000050000000800000011000000020000000A000000435333303120323031360A00A0
:40638000000000000000000000000000000000000000000000000000000000000000000000000000000000000000000000000000000000000A00000001000000656565653E
:4063C00065656565FFFFFFFF807F0000030000000087930360EA00003C000000000030750100000000000000000000000000000000000000000000000000000000000000C2
:4064000000000000905E000000000000000000000000000000000000000000000000000000000000000000000000000000000000000000000000000000000000000000006E
:40644000000000002486FF1F000000000000000000000000000000000000000000000000000000000000000000000000000000000000000000000000000000000000000054
:4064800000000000000000000000000000000000000000000000000000000000000000000000000000000000000000000000000000000000000000000000000000000000DC
:4064C000000000000000000000000000000000000000000000000000000000000000000000000000000000000000000000000000000000000000000000000000000000009C
:40650000000000000000000000000000000000000000000000000000000000000000000000000000000000000000000000000000000000000000000000000000000000005B
:40654000000000000000000000000000000000000000000000000000000000000000000000000000000000000000000000000000000000000000000000000000000000001B
:020000040003F7
:0200000480007A
:4000000001450040084F00400D520040015B004006640040046500404300014031010140370201404E0301403B040140540501403C060140510701404B08014053090140AB
:400040000A0A01405C0B0140490C0140500D0140330E01402E0F01405C1401404D15014030160140491701403218014043190140591A01404A1B01400F400140144101402B
:400080001542014012430140054401400E4501400D46014011470140114801400D490140114C0140084D014005500140035101407E0201300A4B0D30164B1950224B254058
:4000C0002E4B0008011808140914102011A01801198260106180780D79017C40278472027901840589388D0F8E72866F880F896F8A0F0120020403040410052C0608071058
:4001000009300B080C080E100F801101130214081502161017011B401D011E021F0221302201230424082610273C291C2D012F023002314032013303341835803604373CA2
:400140003A203B085608580459045B045D905F01840C86028C0E940496089A029C0CA201A406AC0AAE04B40EB601D608D804D904DB04DC10DD90DF01004003A0040806021F
:400180000A220E040F2112401308158016A01AA21B301D401E041F80204021482280230829402A222B642F48310832513484384839103B033C063F1058405E4062406680D9
:4001C000851086808B02C0ADC2E5C4BCCAAFCC5FCEEFD618D818E220E602020407080B040C0112041308150116011B03220225082F043104320333083502360437013E401D
:400200003F0556085804590C5B045C195D905F01840188068C018F0290069404960297019C06A208A406AA06AC04AE02B004B208B302B401B602B701B820BE10D280D80489
:40024000D904DB04DC11DF010018030104420702088009080A800C010E20101212401320168018901A021B181D401E202002210C23112501271A28942A082C012F103008E1
:400280003240350136103708381039883B013D203E044004420848035D8066806C016D2071017A087B047D40854187018A018C108E889204940C964097929CC49F02A28084
:4002C000A320A401A74CAC01B108B404C097C23DC41FCA57CCEACE6FD610D810DE10E22BE40AEC080010010102200501060109010A040C02120214401501168018011D01DB
:400300001E0820042301240828202A102B012C802E4030FF31013E0156025739580459045B0C5C105D105F01840185CC873289FB8B0495779DAC9F51A558A7A1AD30AFCFF3
:40034000B201B30FB5F0B980BE04BF40D401D804D904DB0CDC01DD10DF01001601200201041006230701088009280AC20B900C100D080E400F0110AA12401304148417202A
:4003800018801E2021012408255428842F2131083240368838143B013D284804491059105C40632068AA69807120720279407D40810885408A108D148E408F40905092040F
:4003C000940C95C2968097A298109B109CC59E409F20A001A108A288A330A40CA740AA40B180B320B440B501C06FC2FFC45FCA55CC5ACE67D614D802DE18E001E280EC80FA
:40040000EE10022005CF06030730081C09FD0B020C010D940F60100412081573161C1A401C101D9E1F6020042208241C253027C92A102B0F300131FF323C344036023E018B
:400440003F01580459045F0187088E018F1093029B219D02A108A501A602A904AF04B001B31FB520B602B908BF04D203D302D804D904DB04DC11DD10DF0100060120030164
:40048000061607400A820D080E040F42120213241480160817081A821B401D081E401F5820042320274029282A402B402E022F6830843120324033013480368837083880F9
:4004C0003B153C023DA83E083F415C045D08680469407D807F018520862088018A018B218C049080920493149404954096829723980499209A409B119C419E209F20A0016F
:40050000A134A288A320A404C0FFC2F9C477CA6FCC5FCE7FE20DE42AE604EE04009E0260060F070709C00B240DB70F4010FD1184120213101473150117F2189419771A60AF
:40054000203022C924CF263027082DC12F12330F34FF35F03E10580459045B045F0182038602880C8A20924496309A889E0CA201A40CA610AC44AE88B001B23CB402B6C08C
:40058000BA08BE11C005C504C9FFCA07CBFFCC40CD20CEF0CF05D008D418D604D804D904DA04DB04DC12DD22DF01E040E1A8E240E3200008028003040402071008420A106D
:4005C0000B040D200EA00F8010021104130215011709182019111A111F10251427182A052D402F10322234043610370139123A083B023D283F8048204B8051105A026004B5
:40060000618268046B026C046F02811186A087028A088C048E019004911492029386942895209601984A9A049B059E08A002A180A202A420AA40AC10B622B744C03EC27F94
:40064000C43DCA53CCE5CE77D208D601D80DE020E201E440EA04EE06840296019E01B202B401BE14D804D904DC10DF0102100302040809080A880B800E200F01102011019A
:40068000131014201508188019501A081B061C242040210C226028202A102B422C012F0130803110330435203603370839653A023B103D103E88404041204220438048016B
:4006C0004A10508058105A406002630468028284841089808A208E018F9091549202930194E0952896019704984999209A109B0D9C229D509E8A9F90A001A120A3C0A422B7
:40070000A601A702B001B484C025C2A6C40ECA1FCCEECE7FD00FD208D60CD80CE018E450E810EC20050C1506190C1D0A21013101330E39083F01580459045C015F01810934
:4007400083108780881E8B208D0C8F1190089140920293809514981099109A049C069E189F03A001A3C0A41EA510A70CA91CAB02AC0AAE14AF40B01EB1E0B201B51FB7E02F
:40078000BA80BE04BF41C032C104C5E0C6C0C70BC81AC9FFCAFFCBFFCEF0CF44D00CD401D604D804D904DA04DB04DC22DD22DF01E6C0EA40EB0203040688070208420B04E9
:4007C0000F20100211041280140115101620170819061B8020062102250426082740286229122C8030AA34083608379038A03A063B043F08411443024410461049014A803F
:4008000050085210581059456202820283408D248F14915492029301944096019A209B079C039D209E8CA120A340A402A502A601A780AC40AD10B301B620C0D2C22BC4ED7D
:40084000CA8FCC7FCE4FD007D60FD801E050E20AE40BE640EC6000FF0104047C05060682080809020EC30F1110041111143C16C118CF19391A301B061D3F1E0C2020210F8B
:40088000233024102830290E2B312C042E0830B031103308343F35073670372039803A223B203F0456025711580459045B045C225D205F01D804D904DC11DF0100440204A2
:4008C0000380052006800702080A09200A010C401082131414011628180419131B4021202201232129112C413122338035203601370238683A023EA85B2069446B04709409
:400900007202731488088902C0DFC28FC4EFCA95CCADCE7FD604E60205030D010F021101130217031D0329032D022F01330235014026410349FF4AFF4BFF4DA04F0150186F
:40094000580459045A045C115F016040628064406540668068406A806C406D206E80820383048C048E089108940195089B029C089E049F01A108A404A608AC04AE08B10291
:40098000B202B308B401B504B60CB701B908BA80BE10BF04C026C103C53CC640C72EC83BC9FFCAFFCBFFCDAFCE07CF01D018D608D804D904DA04DB04DD90DF01E040E28024
:4009C000E440E540E680E840EA80EC40ED20EE800006012002420502070108040A020E21108017481E25202021102624274929202A402E02308432013502362837403804DF
:400A000039803F01410843104508471048084A044C084D024F04561A5D80670181808401851086018D408E029004920296049704980499209B109D029E5AA081A108A208CD
:400A4000A410A602A820AA02AD04AF12B504C09FC2A5C4A8CA8CCCFBCE8AD066D224D610D810E008E408E808EC200108020203010D040E010F0211081D021E081F04220421
:400A8000280129022B042D022F04300432023301340135083608370639203B803E10540F580459045B045F0587018A018D0190019501A601B201B301BE04BF04D608D80472
:400AC000D904DB04DC11DD90DF01000603040521060608040A220B800F02108012261480172019041D411F192104240825402620272029282A402B402F09308031083211DA
:400B000033043480354238083B803D803E024E024F805B405C205E445F026302660867047E0883408810900492429380980499289B109E10A081A108A208A540A602AC40E5
:400B4000B510B604C09EC28DC45FCA3FCC9FCE9AD6F8D868DE20E605EA01EE080105030A0510090C0B030D201120171019271D0F231029032B0C2D0A2F0531203310370F5B
:400B800039023F055280540F580459045B045C015F018002830185019101920C940899019D019E03A101A701B008B204B402B501B601BE11D40FD804D904DB04DC10DF0586
:400BC000023203810619080209400A100C400D011420170119011A141B802210250A264828202A052C042D42304032223402365037043A083B023DA93F804C014D40592110
:400C00005A445C895F10632875027A1082109001910393029402954098089A0D9B109C04A110A222A520A650A902B401C0E8C29DC430CAB3CCFDCEF3D6FFD806DE02E48064
:400C4000E601EC10EE08040406020A060C0110011C0630023201340438083E114034410249FF4AFF4BFF4DA04F015018540F580459045A045B045C105F016040628064400D
